:03004300020F00A9
:03005300020F0099
:100F00000212B600021303000212ED000212D50015
:100F1000020EC20002120200020042000200520051
:100F2000020EFF0002136A0002136B0002136C0032
:100F300002136D0002136E0002136F0002137000A3
:100F400002137100020052000213720002137300B8
:100F50000213740002137500021376000213770067
:100F600002137800020052000200520002005200F8
:100F70000213790002137A0002137B0002137C0033
:100F800002137D0002137E0002137F000213800013
:100F900002138100021382000213830002138400F3
:100FA00002138500021386000213870002138800D3
:080FB0000213890002138A00FC
:10131900D20090E600E054E74410F075B2FF758002
:051329009F75B30322D3
:0100320022AB
:02005000D322B9
:020EFD00D322FE
:02136200D32294
:0813520090E6BAE0F555D32244
:10132E0090E740E555F0E490E68AF090E68B04F005
:02133E00D322B8
:08135A0090E6BAE0F553D3223E
:1013400090E740E553F0E490E68AF090E68B04F0F5
:02135000D322A6
:02136400D32292
:02136600D32290
:02136800D3228E
:10075D0090E6B9E02427700302087024FC600302C0
:10076D00090E90E6B8E06440600302080D90E68A39
:10077D00F090E68BF090E6A0E020E1F990E742E002
:10078D00FFE4FCFDFEFBFA7901F8120498A804A918
:10079D0005AA06AB0790E741E0FE90E740E07C003C
:1007AD002400FFEC3EFEE4FDEB2FFFEA3EFEED39AB
:1007BD00FDEC38FCC004C005C006C00790E743E05F
:1007CD00FFE4FCFDFEFBFAF97801120498D003D08A
:1007DD0002D001D000EF2BF538EE3AF537ED39F5B3
:1007ED0036EC38F53590E744E0753300F53485384F
:1007FD003E85373D85363C85353BFFAE33120E0CBD
:10080D0090E6B8E064C0600302090E90E6A0E02017
:10081D00E1F9E4F53190E6BAE0FFE4FCFDFEFBFA08
:10082D007901F8120498A804A905AA06AB07E4FCFF
:10083D00FDFEEB2531F538EE3AF537ED39F536ECB1
:10084D0038F535AF38AE37AD36FC753D01E4F53EC4
:10085D00120D088F32E490E68AF090E68B7402F068
:10086D0002090E90E6B8E06440600302090E90E6BE
:10087D008AF090E68BF090E6A0E020E1F990E74257
:10088D00E0FFE4FCFDFEFBFA7901F8120498A804E0
:10089D00A905AA06AB0790E741E0FE90E740E07C92
:1008AD00002400FFEC3EFEE4FDEB2FFFEA3EFEEDE3
:1008BD0039FDEC38FCC004C005C006C00790E74305
:1008CD00E0FFE4FCFDFEFBFAF97801120498D00379
:1008DD00D002D001D000EF2BF538EE3AF537ED39D7
:1008ED00F536EC38F53590E744E0753300F5348591
:1008FD00383E85373D85363C85353BFFAE33120F8F
:02090D00B8C36D
:01090F0022C5
:080D08008F3C8E3B8D3A8C39C3
:100D10004380015380FD5380FE5380FBE4F53FE5A3
:100D20003FC3953D4003020E03E53F25E02441F813
:100D3000E4F608F6F540E53C5548FFE53B5547FE2F
:100D4000E53A5546FDE5395545FCAB48AA47A94665
:100D5000A845C31204F5700543800480035380FB4B
:100D6000AF48AE47AD46AC4578011205068F488EB8
:100D7000478D468C45438002E53F25E02441F8E657
:100D8000FE08E625E0FFEE33FEE5905480FDEF4DD2
:100D9000FFE53F25E02441F8A60608A6075380FD9D
:100DA000E4FF0FBF04FC0540E54064187088E53F90
:100DB00025E02441F808E6FFAE3E053E74402EF5DE
:100DC00082E434E7F583EFF0E53F25E02441F8E6DF
:100DD000FEEEFFAE3E053E74402EF582E434E7F5AC
:100DE00083EFF0E53F25E02441F8E6FEEEFFAE3E5E
:100DF000053E74402EF582E434E7F583EFF0053FBD
:0B0E0000020D1F5380FD438001AF3E38
:010E0B0022C4
:040E0C008E398F3A52
:100E1000AC39AD3AEC1200FB8F4C8E4B8D4A8C49AD
:100E20007F007E007D007C40120BF1E4FBFAF97834
:100E3000401200591201348F428E418D408C3F5335
:100E400080FEE4F544C3E544953AE5396480F874DE
:100E500080985053E53E5542FFE53D5541FEE53C47
:100E60005540FDE53B553FFCAB42AA41A940A83F98
:100E7000C31204F5700543800480035380FBAF4226
:100E8000AE41AD40AC3F78011205068F428E418DD8
:100E9000408C3F438002E4F5430543E543B404F945
:100EA0005380FD0544809EE4F5430543E543B404C7
:100EB000F9438001E4F5430543E543B404F9538065
:010EC000FE33
:010EC100220E
:040FB8008E398F3AA5
:100FBC00AC39AD3AEC1200FB8F4C8E4B8D4A8C4900
:100FCC007F007E007D007C40120BF1E4FBFAF97887
:100FDC00401200591201348F428E418D408C3F5388
:100FEC0080F6E4F544C3E544953AE5396480F87439
:100FFC0080985053E53E5542FFE53D5541FEE53C9A
:10100C005540FDE53B553FFCAB42AA41A940A83FEA
:10101C00C31204F5700543800480035380FBAF4278
:10102C00AE41AD40AC3F78011205068F428E418D2A
:10103C00408C3F438002E4F5430543E543B404F997
:10104C005380FD0544809EE4F5430543E543B40419
:10105C00F9438009E4F5430543E543B404F95380AF
:01106C00F68D
:01106D002260
:1012B600C0E0C083C08290E6B5E04401F0D201539D
:0F12C60091EF90E65D7401F0D082D083D0E032DA
:1012ED00C0E0C083C0825391EF90E65D7404F0D0EE
:0612FD0082D083D0E03234
:10130300C0E0C083C0825391EF90E65D7402F0D0D9
:0613130082D083D0E0321D
:100EC200C0E0C083C08290E680E030E70E85080C67
:100ED20085090D85100E85110F800C85100C85116A
:100EE2000D85080E85090F5391EF90E65D7410F0A1
:070EF200D082D083D0E03272
:1012D500C0E0C083C082D2035391EF90E65D7408ED
:0812E500F0D082D083D0E0328A
:10120200C0E0C083C08290E680E030E70E85080C23
:1012120085090D85100E85110F800C85100C851126
:101222000D85080E85090F5391EF90E65D7420F04D
:07123200D082D083D0E0322E
:01004200328B
:01005200327B
:010EFF0032C0
:01136A003250
:01136B00324F
:01136C00324E
:01136D00324D
:01136E00324C
:01136F00324B
:01137000324A
:011371003249
:011372003248
:011373003247
:011374003246
:011375003245
:011376003244
:011377003243
:011378003242
:011379003241
:01137A003240
:01137B00323F
:01137C00323E
:01137D00323D
:01137E00323C
:01137F00323B
:01138000323A
:011381003239
:011382003238
:011383003237
:011384003236
:011385003235
:011386003234
:011387003233
:011388003232
:011389003231
:01138A003230
:0A0046000001020203030404050593
:10091000E4F52CF52BF52AF529C203C200C202C268
:10092000011213197E107F6E8E0A8F0B75121075CF
:10093000138075081075098A7510107511AA751441
:10094000107515CAEE54E07003020A56752D007535
:100950002E808E2F8F30C374209FFF74119ECF2462
:1009600002CF3400FEE48F288E27F526F525F524E6
:10097000F523F522F521AF28AE27AD26AC25AB2413
:10098000AA23A922A821C31204F55026E52E252466
:10099000F582E52D3523F58374CDF0E5242401F5AA
:1009A00024E43523F523E43522F522E43521F5212D
:1009B00080C4E4F524F523F522F521AF28AE27AD58
:1009C00026AC25AB24AA23A922A821C31204F550E2
:1009D00033E5302524F582E52F3523F583E0FFE567
:1009E0002E2524F582E52D3523F583EFF0E524242B
:1009F00001F524E43523F523E43522F522E43521FD
:100A0000F52180B7852D0A852E0B746E2480FF7426
:100A10001034FFFEC3E5139FF513E5129EF512C3D4
:100A2000E50D9FF50DE50C9EF50CC3E50F9FF50F49
:100A3000E50E9EF50EC3E5099FF509E5089EF5084C
:100A4000C3E5119FF511E5109EF510C3E5159FF55F
:100A500015E5149EF514D2E843D82090E668E044EA
:100A600009F090E65CE0443DF0D2AF90E680E020F3
:100A7000E105D20512000390E680E054F7F0538EB2
:100A8000F8C203300105120539C2013003291200F2
:100A9000505024C20312129120001690E682E030DA
:100AA000E704E020E1EF90E682E030E604E020E0B9
:0C0AB000E4121239120EFD12003280C751
:1005390090E6B9E070030205EA1470030206672425
:10054900FE70030206EA24FB70030205E41470033B
:100559000205DE14607314607624056003020749FE
:10056900121362400302075590E6BBE024FE6022A5
:1005790014603324FD601114602224067048E50AD2
:1005890090E6B3F0E50B8037E51290E6B3F0E5139A
:10059900802DE50C90E6B3F0E50D8023E50E90E69D
:1005A900B3F0E50F801990E6BAE0FF121265AA06CA
:1005B900A9077B01EA494B600DEE90E6B3F0EF9095
:1005C900E6B4F002075502074E121340020755120E
:1005D900135A02075512135202075512132E020716
:1005E90055121364400302075590E6B8E0247F6072
:1005F9001514601924027063A200E43325E0FFA2F8
:1006090002E4334F8041E490E740F0803F90E6BC3C
:10061900E0547EFF7E00E0D394807C0040047D019D
:1006290080027D00EC4EFEED4F2446F58274003EBB
:10063900F583E493FF3395E0FEEF24A1FFEE34E662
:100649008F82F583E0540190E740F0E4A3F090E64F
:100659008AF090E68B7402F002075502074E1213D6
:1006690066400302075590E6B8E024FE60162402AE
:10067900600302075590E6BAE0B40105C20002071B
:100689005502074E90E6BAE0705590E6BCE0547EFC
:10069900FF7E00E0D394807C0040047D0180027DD0
:1006A90000EC4EFEED4F2446F58274003EF583E4DE
:1006B90093FF3395E0FEEF24A1FFEE34E68F82F538
:1006C90083E054FEF090E6BCE05480131313541FEA
:1006D900FFE0540F2F90E683F0E04420F0806D8016
:1006E90064121368506690E6B8E024FE601924028B
:1006F900705A90E6BAE0B40104D200804F90E6BA8D
:10070900E064026047803E90E6BCE0547EFF7E00D4
:10071900E0D394807C0040047D0180027D00EC4E92
:10072900FEED4F2446F58274003EF583E493FF33D2
:1007390095E0FEEF24A1FFEE34E68F82F583800871
:1007490012075D500790E6A0E04401F090E6A0E0B2
:030759004480F0E9
:01075C00227A
:03003300020EF9C1
:040EF90053D8EF32A9
:10106E001201000200000040560403B40000010209
:10107E0000010A06000200000040010009022000E3
:10108E00010100A0320904000002FF000000070564
:10109E00020200020007058602000200090220007B
:1010AE00010100A0320904000002FF000000070544
:1010BE0001024000000705810240000004030904FC
:1010CE001E0341004E0041004C004F00470020001F
:1010DE0044004500560049004300450053003403C8
:1010EE00410044004600340078007800780020006B
:1010FE005500530042002000410064006100700062
:10110E00740065007200200042006F0061007200E2
:04111E006400000069
:1012390090E682E030E004E020E60B90E682E030C0
:10124900E119E030E71590E680E04401F07F147E73
:0C125900001211BC90E680E054FEF02270
:1012910090E682E044C0F090E681F04387010000CF
:0412A1000000002227
:1000030030050990E680E0440AF0800790E680E03E
:100013004408F07FDC7E051211BC90E65D74FFF0AE
:0F00230090E65FF05391EF90E680E054F7F02203
:02126500A907D7
:10126700AE14AF158F828E83A3E064037017AD01B0
:1012770019ED7001228F828E83E07C002FFDEC3EFA
:09128700FEAF0580DF7E007F0050
:01129000223B
:1011BC008E318F3290E600E054187012E532240123
:1011CC00FFE43531C313F531EF13F532801590E69A
:1011DC0000E05418FFBF100BE53225E0F532E53185
:1011EC0033F531E5321532AE31700215314E6005F2
:0611FC001212A580EE2294
:1012A5007400F58690FDA57C05A3E582458370F95C
:0112B5002216
:100056000201AAEC5D046005E8590470030201A0E0
:1000660012016B580460F6EC4860F2EC7004FDFE79
:10007600FF22C860DB2481C85009C398600250067D
:100086000201A79850CAF582E9294B4A7005AB824E
:1000960002019675F0007C1A7880C3EF9BEE9AED0C
:1000A60099400DC3EF9BFFEE9AFEED99FDE842F0F5
:1000B600DC23ACF0D0E0FFD0E0FED0E0FDAB822048
:1000C600E7101BEB60BAEC2CFCEF33FFEE33FEEDD2
:1000D60033FD020182E803F830E705C0F075F00051
:1000E600EF2FFFEE33FEED33FD40B830E7C280AAB6
:1000F60075F020800E75F010800575F0087D007E85
:10010600007F003392D530D5031204E7EC3340105C
:10011600EF33FFEE33FEED33FDEC33FCD5F0ED228D
:0E012600E5F0247EA2D513CC92E7CDCEFF22C9
:10013400EDD2E7CD33EC3392D524814006E4FFFEC3
:10014400FDFC22FCE4CFCECDCC24E0501174FF8022
:10015400EDC3CC13CCCD13CDCE13CECF13CF0470BF
:07016400F030D5DE0204E7D4
:100BF1008F488E478D468C45E4FFFE7D807C3FAB60
:100C010048AA47A946A8451203CD7009AF48AE4787
:100C1100AD46AC4522AF48AE47AD46AC451201B535
:100C2100FBAF4CAE4BAD4AAC491201B5FFBF010859
:100C3100E4FFFE7D807C3F22EF64046022EB6404CC
:100C4100601DBB0127E4FFFEFDFCAB4CAA4BA94A8A
:100C5100A8491203CD60084006E4FFFEFDFC2274A2
:100C6100FFF54CF54BF54AF549020CFFE4F54DF55E
:100C71004EFFFEFDFCAB48AA47A946A8451203CD8D
:100C8100504BAF4CAE4BAD4AAC491201348E4D8F37
:100C91004EAC4DAD4EEC1200FBC8ECC8C9EDC9CA53
:100CA100EECACBEFCBAF4CAE4BAD4AAC491201D241
:100CB100E4FBFAF9F81203CD70A5AF48AE47AD4693
:100CC100AC4512043A8F488E478D468C45AF48AEED
:100CD10047AD46AC45120AF0AB4CAA4BA94AA8490C
:100CE1001202C712115A8F4C8E4B8D4A8C49E54E18
:100CF10030E00B12043A8F4C8E4B8D4A8C49AF4C2D
:070D0100AE4BAD4AAC4922E4
:10016B00E9D2E7C933E833F892D5EDD2E7CD33ECDA
:07017B0033FC5002B2D52253
:10018200EC30E7100FBF000C0EBE00080DBD0004DE
:100192000BEB6014A2D5EB13FCED92E7FD2274FF8A
:1001A200FCFDFEFF22E480F8A2D574FF13FC7D80E3
:0301B200E480EFF7
:1001B500ED33EC33601004700FED547F700574025D
:0A01C50092E2227404220422E422D4
:1001CF000201A0E86480F8E933E83360110460F0BD
:1001DF00ED33EC337009E8FCE9FDEAFEEBFF220496
:1001EF0060DED3EB9FEA9EE99DE8C2E78CF0C2F791
:1001FF0095F0400CE8CCF8E9CDF9EACEFAEBCFFB5D
:10020F0012016B85D0F05804700320D5B3E8047049
:10021F00075002B2D50201AA92D5EC0460F7E4CCE4
:10022F00C0E0C398F8603B94186008400DD0E0FB25
:10023F00020182E4FBFAC9FC8028E830E406E4C935
:10024F00FBE4CAFCE830E305E4C9CACBFCE8540779
:10025F006010F8C3E913F9EA13FAEB13FBEC13FC84
:10026F00D8F130F52FC3E49CFCEF9BFFEE9AFEED27
:10027F0099FDD0E0FBEF4E4D4C701222DB030201D3
:10028F00A7EC2CFCEF33FFEE33FEED33FDED30E743
:10029F00EB020182EF2BFFEE3AFEED39FDD0E0FBD2
:1002AF0050130BBB00030201AAED13FDEE13FEEF7B
:0802BF0013FFEC13FC020182A5
:1002C700EC4D6011E8497017ED33EC3304600DE431
:1002D700FCFFFEFD22E933E8330470F80201A012A7
:1002E700016B58046009E4CC2481500628500902A8
:1002F70001AA2840030201A7C0E0EB4A7044B98075
:1003070006D0E0FB020196EF4E701CBD8008EBFFA4
:10031700EAFEE9FD80EBE98DF0A4FEE5F00203B00B
:10032700E9CDF9EAFEEBFFEF89F0A4FCE5F0CE8911
:10033700F0A42EFFE435F0CD89F0A42DFEE435F0CE
:100347008067EF4E7005BD80D780C3EF8BF0A4ACFC
:10035700F0EE8BF0A42CFCE435F0F8EF8AF0A42C37
:10036700E5F038FCE433CB8DF0A42CFCE5F03BF84A
:10037700EE8AF0A42CFCE5F038F8E433CF89F0A43A
:100387002CFCE5F038CF3400CE89F0A42FFFE5F040
:100397003EFEE433C98DF0A42EFEE5F039CD8AF098
:1003A700A42FFFE5F03EFEE43DFD33D0E0FB500710
:1003B7000BBB000F0201AAEC2CFCEF33FFEE33FE60
:0603C700ED33FD0201828E
:1003CD0074F8CC6480CCC86480C8F582046043C3E3
:1003DD00EB9FF5F0EA9E42F0E99D42F0E89C45F076
:1003ED0060305018E5825FFFE582F42B5582FB509B
:1003FD00210ABA001D09B90019088016E5825BFBB8
:10040D00E582F42F5582FF50090EBE00050DBD008B
:10041D00010CC3EB9FF5F0EA9E42F0E99D42F0E836
:0D042D009C45F06007CC4820E701B3EC22AD
:10043A00ED33EC33600A047003BD8004ECB2E7FCD0
:01044A00228F
:1011220033DA929E35B16011377FE5FE3921848929
:101132003AAEC3FF3C1D955B3D6358473E75FDF0DB
:101142003F3172183F800000C2D50201AA0201A0FD
:10115200BD80FA50F30201A7ED33EC330460F17B5A
:101162003B7AAA79B8783F1202C7ED33EC3392D5B5
:10117200247B5011A2D570DB500BED448024045027
:1011820004A2D580CEEFFBEEFAEDF9ECF8120134B1
:10119200EFF582F404FC1201001201D6C082901114
:1011A20022740912045AED33CC33D0F092D525F0D3
:0A11B200A2D57001C313CC13FD2277
:100ABC003E9248DA3ECCCCCD3F2AAAAB4000000097
:100ACC003F8000003F9837F03FB504F33FD744FC1C
:100ADC003E3172173EB172173F0515913EDE5BD960
:100AEC00D2058002C205EDD2E7F8CD33EC330470A9
:100AFC000BBD800592D50201AA0201A040FBD314C4
:100B0C0060F2F5F07C3FEE7A00C39496C8948B406B
:100B1C00230AC89469C8941A401A0AC89468C894DD
:100B2C001F40110AC8945AC89425400805F07A0051
:100B3C00CDC2E7CDC0F08C4F8D508E518F52EA2331
:100B4C0023C0E024CCF582E4340AF5831205291283
:100B5C0001D6ECC0E0EDC0E0EEC0E0EFC0E0120565
:100B6C0019A84FA950AA51AB521201D2D0E0FBD018
:100B7C00E0FAD0E0F9D0E0B2E7F81200598C4F8DD2
:100B8C00508E518F52900ABC740312044BA84FA97B
:100B9C0050AA51AB521202C7D0E0600F24D8F58294
:100BAC00E4340AF5831205291201D68C4F8D508E30
:100BBC00518F52D0E0C3947FFDE49400FC1200FBF3
:100BCC007B187A727931783F1202C7A84FA950AAC4
:100BDC0051AB521201D630050B7BD97A5B79DE789A
:050BEC003E1202C722C9
:10044B00C0E0EFFBEEFAEDF9ECF81202C7D0E0F5E5
:10045B00F0EFFBEEFAEDF9ECF8120519A3A3A3A349
:10046B00E8C0E0E9C0E0EAC0E0EBC0E0C0F0120297
:10047B00C7120529A3A3A3A31201D6D0F0D0E0FB8A
:0D048B00D0E0FAD0E0F9D0E0F8D5F0D422AE
:03000000020036C5
:0C003600787FE4F6D8FD75817402091093
:10049800E88FF0A4CC8BF0A42CFCE98EF0A42CFC03
:1004A8008AF0EDA42CFCEA8EF0A4CDA8F08BF0A481
:1004B8002DCC3825F0FDE98FF0A42CCD35F0FCEBE0
:1004C8008EF0A4FEA9F0EB8FF0A4CFC5F02ECD39A5
:0F04D800FEE43CFCEAA42DCE35F0FDE43CFC2212
:0E04E700C3E49FFFE49EFEE49DFDE49CFC2226
:1004F500EB9FF5F0EA9E42F0E99D42F0E89C45F05D
:0105050022D3
:10050600E8600FECC313FCED13FDEE13FEEF13FFD3
:03051600D8F122F7
:10051900E493FC740193FD740293FE740393FF2228
:10052900E493F8740193F9740293FA740393FB2228
:00000001FF
